S00D000073706172372E737265632A
S11300000C9434000C9449000C9449000C9449005D
S11300100C9449000C9449000C9449000C94490038
S11300200C9449000C9449000C9449000C94490028
S11300300C9449000C9449000C9449000C94490018
S11300400C9449000C9449000C9449000C94490008
S11300500C9449000C9449000C9449000C944900F8
S11300600C9449000C94490011241FBECFEFD4E036
S1130070DEBFCDBF11E0A0E0B1E0EEE9F3E002C0E5
S113008005900D92A630B107D9F70E9498010C94FF
S1130090CD010C940000CF93DF93CDB7DEB784E29B
S11300A090E0FC01108285E290E02FEFFC012083B8
S11300B087E290E02FEFFC0120838AE290E02FEFAB
S11300C0FC0120838BE290E0FC01108289E190E046
S11300D00E94A800DF91CF910895CF93DF93CDB70D
S11300E0DEB788E290E028E230E0F9012081216067
S11300F0FC012083DF91CF910895CF93DF93CDB797
S1130100DEB788E290E028E230E0F9012081267C25
S1130110FC012083DF91CF910895CF93DF9300D02A
S1130120CDB7DEB78A838A81883008F087E0898377
S113013089818095898389818F7089838BE290E09E
S11301402981FC0120830F900F90DF91CF910895B6
S1130150CF93DF93CDB7DEB728970FB6F894DEBF01
S11301600FBECDBF98878F831A82198218C01C8254
S11301701B8209C08AE290E09E838D838B819C81DF
S113018001969C838B832B813C818F8198852817D2
S1130190390784F389819A8101969A8389838981B5
S11301A09A81883291051CF328960FB6F894DEBF25
S11301B00FBECDBFDF91CF910895CF93DF9300D0D1
S11301C01F92CDB7DEB79B838A830E946D0001C066
S11301D0000083E290E0FC01808189838981882F7B
S11301E090E081709927009799F380910201909192
S11301F003010E94A80001C0000083E290E0FC011A
S1130200808189838981882F90E081709927009764
S113021099F780910201909103010E94A8008A81BC
S11302209B81181619062CF48A819B8101979B8364
S11302308A838A810E948D008A819B81009721F4A0
S11302400E947D00000002C00000C2CF0F900F90FA
S11302500F90DF91CF910895CF93DF9300D0CDB766
S1130260DEB78A838A810E948D0001C0000083E288
S113027090E0FC01808189838981882F90E08270DD
S11302809927009799F780910001909101010E94AC
S1130290A8008A81882F90E00E94DD0000000F9062
S11302A00F90DF91CF910895CF93DF9300D01F92E9
S11302B0CDB7DEB71A8219822BC0809100019091CC
S11302C001010E94A80083E290E0FC0180818B83FD
S11302D08B81882F90E084709927009711F482E035
S11302E021C08B81882F90E088709927009711F4A2
S11302F083E018C08B81882F90E080719927009744
S113030011F484E00FC089819A8101969A838983CC
S1130310809104019091050129813A8128173907B8
S113032064F287E00F900F900F90DF91CF910895C2
S1130330CF93DF9300D0CDB7DEB70E944B0080E0AF
S11303400E948D0001C00000198283E290E0FC014C
S113035080818A838A81882F90E080729927009710
S113036091F380910001909101010E94A80083E221
S113037090E0FC0180818A838A81882F90E08072DA
S11303809927009701F30E945401898389810E946F
S11103908D0089810E942C01D6CFF894FFCFF6
S109039E050014000A0032
S9030000FC
