S00D000073706172372E737265632A
S11300000C9434000C9449000C9449000C9449005D
S11300100C9449000C9449000C9449000C94490038
S11300200C9449000C9449000C9449000C94490028
S11300300C9449000C9449000C9449000C94490018
S11300400C9449000C9449000C9449000C94490008
S11300500C9449000C9449000C9449000C944900F8
S11300600C9449000C94490011241FBECFEFD4E036
S1130070DEBFCDBF11E0A0E0B1E0ECE4FAE002C0E5
S113008005900D92A030B107D9F70E941D030C947E
S113009024050C940000CF93DF93CDB7DEB72E97E1
S11300A00FB6F894DEBF0FBECDBF84E290E0FC0132
S11300B0108285E290E02FEFFC01208387E290E03C
S11300C02FEFFC0120838AE290E02FEFFC012083D4
S11300D08BE290E0FC01108280E090E0A8ECB1E4B7
S11300E089839A83AB83BC8320E030E44CE955E4F4
S11300F069817A818B819C810E948F04DC01CB0110
S11301008D839E83AF83B88720E030E040E85FE3CF
S11301106D817E818F8198850E94CC0388232CF485
S113012081E090E09A8789873FC020E03FEF4FE766
S113013057E46D817E818F8198850E948A04181608
S11301404CF520E030E040E251E469817A818B8112
S11301509C810E948F04DC01CB01BC01CD010E9473
S1130160D103DC01CB019A8789870FC084EF91E02A
S11301709C878B878B859C850197F1F79C878B8760
S113018089859A8501979A87898789859A85892B94
S113019069F714C06D817E818F8198850E94D10397
S11301A0DC01CB019A87898789859A859E878D870B
S11301B08D859E850197F1F79E878D8700002E9689
S11301C00FB6F894DEBF0FBECDBFDF91CF91089577
S11301D0CF93DF93CDB7DEB788E290E028E230E03A
S11301E0F90120812160FC0120830000DF91CF917F
S11301F00895CF93DF93CDB7DEB788E290E028E28D
S113020030E0F9012081267CFC0120830000DF918D
S1130210CF910895CF93DF9300D0CDB7DEB78A8313
S11302208A81883008F087E0898389818095898371
S113023089818F7089838BE290E02981FC0120837E
S113024000000F900F90DF91CF910895CF93DF932B
S1130250CDB7DEB76F970FB6F894DEBF0FBECDBF34
S11302609F8F8E8F0E94E80083E290E0FC018081E2
S113027089838981882F90E081709927892BA1F344
S113028084E190E0092E000CAA0BBB0BBC01CD014C
S11302900E940204DC01CB018E839F83A887B98767
S11302A020E030E44CE955E46E817F8188859985AE
S11302B00E948F04DC01CB018A879B87AC87BD87B2
S11302C020E030E040E85FE36A857B858C859D858E
S11302D00E94CC0388232CF481E090E09F878E87D2
S11302E03FC020E03FEF4FE757E46A857B858C856C
S11302F09D850E948A0418164CF520E030E040E207
S113030051E46E817F81888599850E948F04DC0188
S1130310CB01BC01CD010E94D103DC01CB019F873D
S11303208E870FC084EF91E0998B888B8889998997
S11303300197F1F7998B888B8E859F8501979F870D
S11303408E878E859F85892B69F714C06A857B8586
S11303508C859D850E94D103DC01CB019F878E870C
S11303608E859F859B8B8A8B8A899B890197F1F760
S11303709B8B8A8B83E290E0FC0180818983898155
S1130380882F90E081709927892BA1F784E190E070
S1130390092E000CAA0BBB0BBC01CD010E94020468
S11303A0DC01CB018A839B83AC83BD8320E030E4F2
S11303B04CE955E46A817B818C819D810E948F0484
S11303C0DC01CB018C8B9D8BAE8BBF8B20E030E0AE
S11303D040E85FE36C897D898E899F890E94CC0304
S11303E088232CF481E090E0998F888F3FC020E02F
S11303F03FEF4FE757E46C897D898E899F890E947E
S11304008A0418164CF520E030E040E251E46A8199
S11304107B818C819D810E948F04DC01CB01BC0116
S1130420CD010E94D103DC01CB01998F888F0FC0CD
S113043084EF91E09B8F8A8F8A8D9B8D0197F1F7D2
S11304409B8F8A8F888D998D0197998F888F888D3E
S1130450998D892B69F714C06C897D898E899F8950
S11304600E94D103DC01CB01998F888F888D998DEF
S11304709D8F8C8F8C8D9D8D0197F1F79D8F8C8F27
S11304808E8D9F8D181619062CF48E8D9F8D0197D5
S11304909F8F8E8F8E8D0E940A018E8D9F8D892B4A
S11304A019F40E94F90002C00000DECE6F960FB668
S11304B0F894DEBF0FBECDBFDF91CF910895CF93E7
S11304C0DF93CDB7DEB761970FB6F894DEBF0FBEEA
S11304D0CDBF1A8219829FC085E090E0092E000CDE
S11304E0AA0BBB0BBC01CD010E940204DC01CB01B1
S11304F08C839D83AE83BF8320E030E44CE955E4D4
S11305006C817D818E819F810E948F04DC01CB01EF
S113051088879987AA87BB8720E030E040E85FE3BB
S1130520688579858A859B850E94CC0388232CF471
S113053081E090E09D878C873FC020E03FEF4FE74C
S113054057E4688579858A859B850E948A041816F4
S11305504CF520E030E040E251E46C817D818E81F5
S11305609F810E948F04DC01CB01BC01CD010E945C
S1130570D103DC01CB019D878C870FC084EF91E010
S11305809F878E878E859F850197F1F79F878E873A
S11305908C859D8501979D878C878C859D85892B6E
S11305A069F714C0688579858A859B850E94D10383
S11305B0DC01CB019D878C878C859D85998B888BED
S11305C0888999890197F1F7998B888B83E290E068
S11305D0FC0180818B838B81882F90E08470992724
S11305E0892B11F482E020C08B81882F90E08870E1
S11305F09927892B11F483E017C08B81882F90E011
S113060080719927892B11F484E00EC089819A8125
S113061001969A8389838AE090E029813A81281798
S113062039070CF459CF87E061960FB6F894DEBF12
S11306300FBECDBFDF91CF910895CF93DF93CDB798
S1130640DEB760970FB6F894DEBF0FBECDBF0E9431
S11306504B0080E00E940A01198283E290E0FC01D1
S113066080818A838A81882F90E080729927892BE0
S113067099F385E090E0092E000CAA0BBB0BBC019A
S1130680CD010E940204DC01CB018B839C83AD83EA
S1130690BE8320E030E44CE955E46B817C818D819C
S11306A09E810E948F04DC01CB018F839887A987E8
S11306B0BA8720E030E040E85FE36F817885898580
S11306C09A850E94CC0388232CF481E090E09C87D7
S11306D08B873FC020E03FEF4FE757E46F81788579
S11306E089859A850E948A0418164CF520E030E02A
S11306F040E251E46B817C818D819E810E948F0454
S1130700DC01CB01BC01CD010E94D103DC01CB0192
S11307109C878B870FC084EF91E09E878D878D85A2
S11307209E850197F1F79E878D878B859C85019720
S11307309C878B878B859C85892B69F714C06F8177
S1130740788589859A850E94D103DC01CB019C8739
S11307508B878B859C85988B8F878F85988901974C
S1130760F1F7988B8F8783E290E0FC0180818A8384
S11307708A81882F90E080729927892B09F46CCFA5
S11307800E945F02898389810E940A018981882FDE
S113079090E00E94260160CF0E943D0408F481E0AD
S11307A008950E94690488F09F5798F0B92F9927FB
S11307B0B751B0F0E1F0660F771F881F991F1AF048
S11307C0BA95C9F714C0B13091F00E948304B1E026
S11307D008950C948304672F782F8827B85F39F025
S11307E0B93FCCF3869577956795B395D9F73EF4E1
S11307F090958095709561957F4F8F4F9F4F089589
S1130800E89409C097FB3EF49095809570956195A6
S11308107F4F8F4F9F4F9923A9F0F92F96E9BB275C
S11308209395F695879577956795B795F111F8CFD8
S1130830FAF4BB0F11F460FF1BC06F5F7F4F8F4F43
S11308409F4F16C0882311F096E911C0772321F039
S11308509EE8872F762F05C0662371F096E8862FD1
S113086070E060E02AF09A95660F771F881FDAF728
S1130870880F9695879597F90895990F0008550F55
S1130880AA0BE0E8FEEF16161706E807F907C0F012
S113089012161306E407F50798F0621B730B840B1A
S11308A0950B39F40A2661F0232B242B252B21F4F4
S11308B008950A2609F4A140A6958FEF811D811D94
S11308C0089557FD9058440F551F59F05F3F71F03C
S11308D04795880F97FB991F61F09F3F79F08795A3
S11308E00895121613061406551FF2CF4695F1DF2C
S11308F008C0161617061806991FF1CF86957105BC
S1130900610508940895E894BB2766277727CB01EF
S113091097F908950E943D0408F48FEF08950E940A
S1130920A2040C9413050E94050538F00E940C05DE
S113093020F0952311F00C94FC040C94020511246E
S11309400C9484040E94610470F3959FC1F3950F85
S113095050E0551F629FF001729FBB27F00DB11D3F
S1130960639FAA27F00DB11DAA1F649F6627B00DCF
S1130970A11D661F829F2227B00DA11D621F739FB8
S1130980B00DA11D621F839FA00D611D221F749FC6
S11309903327A00D611D231F849F600D211D822F0D
S11309A0762F6A2F11249F5750409AF0F1F0882334
S11309B04AF0EE0FFF1FBB1F661F771F881F915061
S11309C05040A9F79E3F510580F00C94FC040C9410
S11309D084045F3FE4F3983ED4F386957795679556
S11309E0B795F795E7959F5FC1F7FE2B880F911D8B
S11309F09695879597F9089597F99F6780E870E031
S1130A0060E008959FEF80EC089500240A94161680
S1130A10170618060906089500240A9412161306E8
S1130A20140605060895092E0394000C11F4882376
S1130A3052F0BB0F40F4BF2B11F460FF04C06F5F92
S10F0A407F4F8F4F9F4F0895F894FFCF15
S9030000FC
