:100000000C9434000C9449000C9449000C94490061
:100010000C9449000C9449000C9449000C9449003C
:100020000C9449000C9449000C9449000C9449002C
:100030000C9449000C9449000C9449000C9449001C
:100040000C9449000C9449000C9449000C9449000C
:100050000C9449000C9449000C9449000C944900FC
:100060000C9449000C94490011241FBECFEFD4E03A
:10007000DEBFCDBF11E0A0E0B1E0E4E0F1E002C0FE
:1000800005900D92A030B107D9F70E9461000C9441
:1000900080000C94000014B88FEF85B987B98AB935
:1000A0001BB82FEF80E792E0215080409040E1F7AD
:1000B00000C000000895409A089588B1867C88B9F0
:1000C00008950E944B000E945B0080E29CE12FEFAC
:1000D00039E648E1215030404040E1F700C00000DF
:1000E0000197A9F70E945D008FEF9DE329E48150FD
:1000F00090402040E1F700C000000E945B00E5CF87
:04010000F894FFCFA1
:00000001FF
